:100000000C9462000C948A000C948A000C948A0070
:100010000C948A000C948A000C948A000C948A0038
:100020000C948A000C948A000C948A000C948A0028
:100030000C948A000C948A000C948A000C948A0018
:100040000C94E4040C948A000C948B020C94CE0261
:100050000C948A000C948A000C948A000C948A00F8
:100060000C948A000C948A00000000070002010032
:100070000003040600000000000000000102040864
:100080001020408001020408102001020408102002
:10009000040404040404040402020202020203032E
:1000A00003030303000000002300260029000000D2
:1000B0000000250028002B0000000000240027007D
:1000C0002A008D0311241FBECFEFD8E0DEBFCDBFC5
:1000D00011E0A0E0B1E0EEE4FFE002C005900D9277
:1000E000A032B107D9F721E0A0E2B1E001C01D9232
:1000F000A93DB207E1F710E0C2E6D0E004C02197C5
:10010000FE010E949007C136D107C9F70E94D704AB
:100110000C94A5070C94000061E08DE00E94460657
:1001200040E855E260E070E086E291E00E94090359
:1001300061E080910A010E94460661E08091080119
:100140000E94460661E0809106010E94460661E039
:10015000809104010E94460661E080910E010E9498
:10016000460661E080910C010E94460661E08091A4
:1001700002010E94460660E0809100010C94460650
:10018000CF93C62FBC0180910E010E94BE056C2F3B
:1001900080910A010E94820661E0C11160E08091B5
:1001A0000801CF910C948206CF93C62FBC01809199
:1001B0000C010E94BE056C2F809106010E948206F0
:1001C00061E0C11160E080910401CF910C9482063E
:1001D0001092240110922301109222011092210109
:1001E00060E070E080910E010E94BE0560E070E06A
:1001F00080910C010C94BE05CF93DF93C2E0D1E057
:1002000060E088810E94820682E090E00E94790589
:1002100061E088810E9482068AE090E00E94790570
:1002200060E088810E94820620E432E44FE050E0E2
:1002300061E0809100010E94B1062AE330E040E0D5
:1002400050E00E946607C901DF91CF910895EF92B7
:10025000FF920F931F93CF93DF937C018B010E943A
:10026000FC00EC014AE050E0BC0186E291E00E9413
:10027000C504EC16FD065CF4C017D10744F4DF9109
:10028000CF911F910F91FF90EF900C94E8000C1705
:100290001D07FCF4C436D105E4F486EE90E090939B
:1002A0002401809323019093220180932101609186
:1002B00020010E94C0006091200180912101909155
:1002C0002201DF91CF911F910F91FF90EF900C943D
:1002D000D400DF91CF911F910F91FF90EF9008957F
:1002E00062E370E080E090E00E9453056AE070E015
:1002F00085E090E00E94270186E291E00E94F101F2
:10030000892B09F46DC086E291E00E941D02809362
:100310002501843459F486EE90E090932401809373
:10032000230190932201809321010BC08334A1F417
:1003300080912301909124014E9790932401809302
:100340002301609120010E94C000609120018091F2
:1003500021019091220142C0813481F480912101D8
:10036000909122014E9790932201809321016091F8
:1003700020018091230190912401E5CF8534D1F4AF
:1003800086EE90E0909324018093230190932201C4
:100390008093210161E080912001811160E086EE6F
:1003A00090E00E94C00061E080912001882379F2F2
:1003B00060E0CDCF8234A1F410922201109221018D
:1003C00010922401109223016091200180E090E0BE
:1003D0000E94C0006091200180E090E00C94D40065
:1003E0000895FC0124853585F901E05CFF4F80818B
:1003F0009181329620813181821B930B8F739927D3
:100400000895DC011C96ED91FC911D97DF01A05C25
:10041000BF4F2D913C91119712968D919C91119700
:100420002817390739F08D919C91E80FF91F8081C9
:1004300090E008958FEF9FEF0895FC01A485B585A6
:10044000FD01E05CFF4F20813181329680819181F6
:100450002817390779F080819181A80FB91F8C91F5
:10046000208131812F5F3F4F2F73332731832083CA
:1004700090E008958FEF9FEF0895FC0181A18823FC
:1004800029F0A489B5898C9186FFFBCF11A208952C
:100490000F931F93CF93DF93FC01A685B7858D0142
:1004A000005C1F4FE8018881998101968F7399271D
:1004B000AD014E5B5F4FEA0128813981281739076A
:1004C000D1F3E80128813981A20FB31F6C93A6856F
:1004D000B785A05CBF4F11969C938E93A689B78970
:1004E0002C9181E090E0078C02C0880F991F0A943C
:1004F000E2F7822B8C9381E081A30488F589E02DBB
:1005000080818064808381E090E0DF91CF911F91B2
:100510000F91089508951F920F920FB60F92112414
:100520002F934F935F938F939F93EF93FF938091BC
:10053000C00082FD1CC02091C6008091CC0190912A
:10054000CD014091CE015091CF0101968F73992733
:100550004817590771F0E091CC01F091CD01E457B3
:10056000FE4F20839093CD018093CC0102C08091F7
:10057000C600FF91EF919F918F915F914F912F91C5
:100580000F900FBE0F901F90189586E291E00E9489
:10059000F101892B11F00C948A0208951F920F9299
:1005A0000FB60F9211242F933F938F939F93EF9346
:1005B000FF93209188013091890180918A01909167
:1005C0008B012817390731F48091C1008F7D80930A
:1005D000C10014C0E0918A01F0918B01E85BFE4FED
:1005E000208180918A0190918B0101968F739927C8
:1005F00090938B0180938A012093C600FF91EF9125
:100600009F918F913F912F910F900FBE0F901F9050
:100610001895CF92DF92EF92FF92CF93DF93EC0188
:100620006A017B014115514E6105710509F1EC89A3
:10063000FD8981E090E008A002C0880F991F0A940C
:10064000E2F7808360E079E08DE390E0A701960116
:100650000E944407DA01C9010197A109B109B695C1
:10066000A795979587959C01211580E13807A8F0FB
:10067000EC89FD89108260E874E88EE190E0A701C2
:1006800096010E944407DA01C9010197A109B10945
:10069000B695A795979587959C01E889F989308348
:1006A000EA89FB89208319A2EE89FF89408181E0D4
:1006B00090E09C010C8C02C0220F331F0A94E2F7D9
:1006C000242B2083EE89FF8940819C010D8C02C080
:1006D000220F331F0A94E2F7242B2083EE89FF892F
:1006E00040819C010E8C02C0220F331F0A94E2F756
:1006F000242B2083EE89FF8920810F8C02C0880F74
:10070000991F0A94E2F7809582238083DF91CF912D
:10071000FF90EF90DF90CF900895E6E2F1E0138232
:10072000128288EE93E0A0E0B0E084839583A683F4
:10073000B78384E191E0918380838CE891E0958791
:10074000848788E491E09787868785EC90E0918B99
:10075000808B84EC90E0938B828B80EC90E0958B87
:10076000848B81EC90E0978B868B82EC90E0918F6C
:10077000808F86EC90E0938F828F84E0848F83E07B
:10078000858F87E0868F85E0878F81E080A308953D
:10079000CF92DF92EF92FF920F931F93CF93DF934D
:1007A0006C01EB017B01E40EF51E00E010E0CE15BC
:1007B000DF0561F06991D601ED91FC910190F08126
:1007C000E02DC6010995080F191FF1CFC801DF916F
:1007D000CF911F910F91FF90EF90DF90CF900895F0
:1007E0006115710579F0FB0101900020E9F731975F
:1007F000AF01461B570BDC01ED91FC910280F381A8
:10080000E02D099480E090E00895DC01ED91FC91E9
:100810000190F081E02D09940F931F93CF93DF9304
:10082000EC016DE00E9405048C016AE0CE010E949B
:100830000504800F911FDF91CF911F910F910895B3
:100840008F929F92AF92BF92CF92DF92EF92FF92E0
:100850000F931F93CF93DF93CDB7DEB7A1970FB65A
:10086000F894DEBF0FBECDBF6C01142FE52FCB0176
:10087000022F19A2223008F40AE07E0121E2E20EE2
:10088000F11C802E912CA12CB12C612F7E2FA50163
:1008900094010E944407029F1019112481E0E81A74
:1008A000F1081A3014F4105D01C0195CF7011083CF
:1008B000122FE32FCA01232B242B252B31F7B7014D
:1008C000C6010E94F003A1960FB6F894DEBF0FBEDA
:1008D000CDBFDF91CF911F910F91FF90EF90DF90EF
:1008E000CF90BF90AF909F908F900895CF92DF925E
:1008F000EF92FF920F931F93CF93DF932115310552
:1009000081F4DC01ED91FC910190F081E02D642FE8
:10091000DF91CF911F910F91FF90EF90DF90CF90DB
:1009200009942A30310501F577FF1DC06A017B016A
:10093000EC016DE20E9405048C0144275527BA01A1
:100940004C195D096E097F092AE0CE010E9420043E
:10095000800F911FDF91CF911F910F91FF90EF902A
:10096000DF90CF9008952AE0DF91CF911F910F91F2
:10097000FF90EF90DF90CF900C9420049A01AB0190
:10098000770F660B770B0C9476040F931F93CF931E
:10099000DF93EC010E94BE048C01CE010E940C0486
:1009A000800F911FDF91CF911F910F9108950E94A9
:1009B00083050E948C00C5ECD2E00E947001209754
:1009C000E1F30E94C502F9CF1F920F920FB60F926A
:1009D00011242F933F938F939F93AF93BF93809155
:1009E000D1019091D201A091D301B091D401309165
:1009F000D00123E0230F2D3720F40196A11DB11D56
:100A000005C026E8230F0296A11DB11D2093D00139
:100A10008093D1019093D201A093D301B093D401DC
:100A20008091D5019091D601A091D701B091D801C4
:100A30000196A11DB11D8093D5019093D601A0937D
:100A4000D701B093D801BF91AF919F918F913F9102
:100A50002F910F900FBE0F901F9018953FB7F894ED
:100A60008091D5019091D601A091D701B091D80184
:100A700026B5A89B05C02F3F19F00196A11DB11DF9
:100A80003FBFBA2FA92F982F8827820F911DA11D34
:100A9000B11DBC01CD0142E0660F771F881F991F71
:100AA0004A95D1F70895CF92DF92EF92FF92CF93BC
:100AB000DF936B017C010E942E05EB01C114D10470
:100AC000E104F10479F00E942E056C1B7D0B683E59
:100AD0007340A0F381E0C81AD108E108F108C851B9
:100AE000DC4FECCFDF91CF91FF90EF90DF90CF9074
:100AF0000895019739F0880F991F880F991F029761
:100B00000197F1F70895789484B5826084BD84B527
:100B1000816084BD85B5826085BD85B5816085BDF8
:100B2000EEE6F0E0808181608083E1E8F0E0108211
:100B3000808182608083808181608083E0E8F0E052
:100B4000808181608083E1EBF0E08081846080833C
:100B5000E0EBF0E0808181608083EAE7F0E0808173
:100B600084608083808182608083808181608083D3
:100B70008081806880831092C10008951F93CF9375
:100B8000DF93182FEB0161E00E944606209711F4D5
:100B900060E004C0CF3FD10539F461E0812FDF91DF
:100BA000CF911F910C948206E12FF0E0E859FF4F9E
:100BB000E491E330F9F048F4E130B9F0E230A1F526
:100BC00084B5806284BDC8BD34C0E630E9F0E7304A
:100BD00019F1E43049F580918000806280938000B3
:100BE000D0938B00C0938A0024C084B5806884BDF4
:100BF000C7BD1FC080918000806880938000D09323
:100C00008900C093880015C08091B00080688093EF
:100C1000B000C093B3000DC08091B000806280939B
:100C2000B000C093B40005C0C038D1050CF0B5CFFA
:100C3000AFCFDF91CF911F910895833081F028F4D9
:100C4000813099F08230A1F008958630A9F0873084
:100C5000B9F08430D1F4809180008F7D03C0809101
:100C600080008F7780938000089584B58F7702C0CD
:100C700084B58F7D84BD08958091B0008F7703C0C7
:100C80008091B0008F7D8093B0000895CF93DF9363
:100C900090E0FC01E458FF4F2491FC01E057FF4F26
:100CA0008491882361F190E0880F991FFC01E8543A
:100CB000FF4FC591D491FC01E255FF4FA591B4912E
:100CC000611109C09FB7F894888120958223888399
:100CD000EC912E230BC0623061F49FB7F8948881A9
:100CE000322F309583238883EC912E2B2C939FBF3A
:100CF00006C08FB7F894E8812E2B28838FBFDF9131
:100D0000CF9108951F93CF93DF93282F30E0F901FF
:100D1000E859FF4F8491F901E458FF4FD491F9014C
:100D2000E057FF4FC491CC23C1F0162F81110E94D0
:100D30001D06EC2FF0E0EE0FFF1FE255FF4FA591CF
:100D4000B4919FB7F894111104C08C91D095D82319
:100D500002C0EC91DE2BDC939FBFDF91CF911F91FE
:100D600008958F929F92AF92BF92CF92DF92EF92AF
:100D7000FF920F931F93CF93DF9390E0FC01E45811
:100D8000FF4FA491FC01E057FF4F8491662311F0BF
:100D9000BA2F01C0B0E089019A013F7090E0880F3E
:100DA000991F8C559F4F480159014FEF841A940A9F
:100DB000A40AB40AC12CD12C7601FC01C591D491AE
:100DC00068816A23B6131AC05FEFC51AD50AE50A0F
:100DD000F50AC814D904EA04FB0479F745C04601B2
:100DE00057016FEF861A960AA60AB60AC016D106F0
:100DF000E206F30609F438C075016401FC01C591EF
:100E0000D49168816A23B613EACFB901A8014C19BD
:100E10005D096E097F096A017B0120E030E0A901CC
:100E2000FC01C591D49168816A23B6130AC02C15C0
:100E30003D054E055F05C1F02F5F3F4F4F4F5F4FA0
:100E4000EFCFA5E1B0E00E948507DC01CB01409621
:100E5000A11DB11DBC01CD0124E096958795779524
:100E600067952A95D1F703C060E070E0CB01DF9170
:100E7000CF911F910F91FF90EF90DF90CF90BF9097
:100E8000AF909F908F900895A1E21A2EAA1BBB1BD2
:100E9000FD010DC0AA1FBB1FEE1FFF1FA217B30746
:100EA000E407F50720F0A21BB30BE40BF50B661F5C
:100EB000771F881F991F1A9469F760957095809520
:100EC00090959B01AC01BD01CF010895052E97FBC4
:100ED0001EF400940E947D0757FD07D00E9444072E
:100EE00007FC03D04EF40C947D0750954095309547
:100EF00021953F4F4F4F5F4F089590958095709586
:100F000061957F4F8F4F9F4F08950E949607A59F31
:100F1000900DB49F900DA49F800D911D11240895F4
:100F2000EE0FFF1F0590F491E02D0994A29FB001F0
:100F3000B39FC001A39F700D811D1124911DB29F0D
:0E0F4000700D811D1124911D0895F894FFCFAE
:100F4E00050004000700080009000A0006000B0057
:100F5E00000000004802C803F1011D0201023D021B
:00000001FF
