:100000000C9455000C947D000C947D000C947D00A4
:100010000C947D000C947D000C947D000C947D006C
:100020000C947D000C947D000C947D000C947D005C
:100030000C947D000C947D000C947D000C947D004C
:100040000C945B060C947D000C9467010C94AA013F
:100050000C947D000C947D000C947D000C947D002C
:100060000C947D000C947D00010204081020408057
:1000700001020408102001020408102004040404F2
:100080000404040402020202020203030303030342
:1000900000000000250028002B00000000002400C4
:1000A00027002A00A0006902A60011241FBECFEF7E
:1000B000D8E0DEBFCDBF11E0A0E0B1E0E4EAFFE0B0
:1000C00002C005900D92A232B107D9F721E0A2E259
:1000D000B1E001C01D92A23EB207E1F710E0C4E515
:1000E000D0E004C02197FE010E94A007C235D107CD
:1000F000C9F70E944E060C94C5070C94000061E0FD
:100100008DE00E94370740E855E260E070E08BE246
:1001100091E00E94E50187E090E090932A018093AE
:10012000290161E0809102010E94370761E080911E
:1001300000010E94370761E0809104010C943707A9
:1001400060E171E082E291E00C94320482E291E09D
:100150000C94C4036CE28BE291E00E94240162E300
:1001600070E080E090E00E94D6068BE291E00E9471
:10017000CD00892B89F08BE291E00E94C1036C32A3
:10018000710531F46CE071E08BE291E00E94FC02B9
:100190008BE291E00C9419010895FC0124853585CA
:1001A000F901E05CFF4F808191813296208131819D
:1001B000821B930B8F7399270895DC011C96ED9198
:1001C000FC911D97DF01A05CBF4F2D913C911197D1
:1001D00012968D919C9111972817390739F08D91BE
:1001E0009C91E80FF91F808190E008958FEF9FEFB9
:1001F0000895FC01A485B585FD01E05CFF4F2081D9
:1002000031813296808191812817390779F0808178
:100210009181A80FB91F8C91208131812F5F3F4FB1
:100220002F7333273183208390E008958FEF9FEF62
:100230000895FC0181A1882329F0A489B5898C91B6
:1002400086FFFBCF11A208950F931F93CF93DF93E7
:10025000FC01A685B7858D01005C1F4FE8018881F0
:10026000998101968F739927AD014E5B5F4FEA012B
:100270002881398128173907D1F3E801288139818C
:10028000A20FB31F6C93A685B785A05CBF4F1196D4
:100290009C938E93A689B7892C9181E090E0078C7E
:1002A00002C0880F991F0A94E2F7822B8C9381E099
:1002B00081A30488F589E02D80818064808381E0BA
:1002C00090E0DF91CF911F910F91089508951F92B3
:1002D0000F920FB60F9211242F934F935F938F932A
:1002E0009F93EF93FF938091C00082FD1CC02091EB
:1002F000C6008091D1019091D2014091D3015091DB
:10030000D40101968F7399274817590771F0E0912E
:10031000D101F091D201EF56FE4F20839093D2018C
:100320008093D10102C08091C600FF91EF919F910F
:100330008F915F914F912F910F900FBE0F901F9053
:1003400018958BE291E00E94CD00892B11F00C945E
:10035000660108951F920F920FB60F9211242F93EA
:100360003F938F939F93EF93FF9320918D01309153
:100370008E0180918F01909190012817390731F4F7
:100380008091C1008F7D8093C10014C0E0918F01E6
:10039000F0919001E35BFE4F208180918F0190915D
:1003A000900101968F7399279093900180938F010C
:1003B0002093C600FF91EF919F918F913F912F91D4
:1003C0000F900FBE0F901F901895CF92DF92EF9273
:1003D000FF92CF93DF93EC016A017B014115514EEF
:1003E0006105710509F1EC89FD8981E090E008A0C3
:1003F00002C0880F991F0A94E2F7808360E079E0D9
:100400008DE390E0A70196010E947307DA01C9010C
:100410000197A109B109B695A795979587959C0174
:10042000211580E13807A8F0EC89FD89108260E889
:1004300074E88EE190E0A70196010E947307DA014B
:10044000C9010197A109B109B695A7959795879517
:100450009C01E889F9893083EA89FB89208319A204
:10046000EE89FF89408181E090E09C010C8C02C004
:10047000220F331F0A94E2F7242B2083EE89FF8991
:1004800040819C010D8C02C0220F331F0A94E2F7B9
:10049000242B2083EE89FF8940819C010E8C02C0B1
:1004A000220F331F0A94E2F7242B2083EE89FF8961
:1004B00020810F8C02C0880F991F0A94E2F7809563
:1004C00082238083DF91CF91FF90EF90DF90CF90D8
:1004D0000895EBE2F1E01382128288EE93E0A0E04F
:1004E000B0E084839583A683B78385E191E091830F
:1004F000808381E991E0958784878DE491E09787F7
:10050000868785EC90E0918B808B84EC90E0938BD8
:10051000828B80EC90E0958B848B81EC90E0978BC4
:10052000868B82EC90E0918F808F86EC90E0938FA9
:10053000828F84E0848F83E0858F87E0868F85E0DB
:10054000878F81E080A30895CF92DF92EF92FF9290
:100550000F931F93CF93DF936C01EB017B01E40EAC
:10056000F51E00E010E0CE15DF0561F06991D601BF
:10057000ED91FC910190F081E02DC6010995080FE5
:10058000191FF1CFC801DF91CF911F910F91FF90FB
:10059000EF90DF90CF9008956115710579F0FB0120
:1005A00001900020E9F73197AF01461B570BDC01A2
:1005B000ED91FC910280F381E02D099480E090E0C0
:1005C0000895DC01ED91FC910190F081E02D0994FA
:1005D0000F931F93CF93DF93EC016DE00E94E10234
:1005E0008C016AE0CE010E94E102800F911FDF9131
:1005F000CF911F910F9108950F931F93CF93DF9386
:10060000EC010E94CC028C01CE010E94E802800F16
:10061000911FDF91CF911F910F9108950F931F9319
:10062000CF93DF93EC010E94A506688779878A87BC
:100630009B87E881F9810084F185E02DCE01099541
:1006400097FF17C00E94A506088519852A853B8556
:10065000DC01CB01801B910BA20BB30B0C811D8124
:100660002E813F8180179107A207B30710F38FEF08
:100670009FEFDF91CF911F910F910895CF93DF935B
:10068000EC01CE010E940E0397FD11C08D32910541
:1006900071F09C01205331092A30310540F0E88186
:1006A000F9810680F781E02DCE010995EACFDF912F
:1006B000CF910895BF92CF92DF92EF92FF920F9366
:1006C0001F93CF93DF938C01C62F0E943E03FC0142
:1006D00097FD47C0C12CD12C7601B12C0C2E000CFB
:1006E000DD0BEC17FD0709F1ED32F105E1F0CF016B
:1006F000C0970A97D0F4AAE0B0E0A70196010E9443
:1007000095076F01FF0FEE08FF08DC01CB018C0D90
:100710009D1DAE1DBF1D6C017D0120E3C21AD108D5
:10072000E108F10802C0BB24B394D801ED91FC911B
:100730000680F781E02DC8010995C8010E940E03CB
:10074000FC01C0970A9768F2CE17DF0751F2BB2071
:1007500061F066277727CB016C197D098E099F0907
:1007600006C060E070E0CB0102C0C701B601DF91B6
:10077000CF911F910F91FF90EF90DF90CF90BF909E
:10078000089561E00C945A03FC01808191810C94DE
:10079000E004CF93DF93EC0188819981009711F0F9
:1007A0000E94E004198218821D821C821B821A8218
:1007B000DF91CF9108950F931F93CF93DF93EC01B7
:1007C0008B016F5F7F4F888199810E946905009737
:1007D00031F0998388831B830A8381E001C080E024
:1007E000DF91CF911F910F910895CF93DF93EC018B
:1007F00088819981892B29F08A819B8186179707A7
:1008000060F4CE010E94DB03882341F08C819D813E
:10081000892B19F4E881F981108281E0DF91CF9171
:100820000895EF92FF920F931F93CF93DF93EC0104
:100830007B018A01BA010E94F503811104C0CE0137
:100840000E94C90307C01D830C83B7018881998169
:100850000E94BE07CE01DF91CF911F910F91FF90B3
:10086000EF900895FC01118210821382128215828A
:10087000148216826115710551F0FB010190002070
:10088000E9F73197AF01461B570B0C9411040895FB
:100890000F931F93CF93DF938230910510F482E082
:1008A00090E0E091E001F091E10120E030E0A0E093
:1008B000B0E0309719F140815181028113814817CE
:1008C0005907C8F08417950769F4109731F012960C
:1008D0000C93129713961C9327C00093E00110937A
:1008E000E10122C02115310519F04217530718F410
:1008F0009A01BD01EF01DF01F801DBCF21153105C0
:10090000F9F0281B390B2430310580F48A819B8152
:100910006115710521F0FB019383828304C09093DC
:10092000E1018093E001FE01329644C0FE01E20F36
:10093000F31F8193919322503109398328833AC060
:100940002091DE013091DF01232B41F42091080139
:10095000309109013093DF012093DE0120910601DF
:10096000309107012115310541F42DB73EB7409173
:100970000A0150910B01241B350BE091DE01F0912F
:10098000DF01E217F307A0F42E1B3F0B28173907EE
:1009900078F0AC014E5F5F4F2417350748F04E0FDB
:1009A0005F1F5093DF014093DE018193919302C05A
:1009B000E0E0F0E0CF01DF91CF911F910F9108951A
:1009C000CF93DF93009709F481C0FC013297138223
:1009D0001282A091E001B091E101109781F4208191
:1009E0003181820F931F2091DE013091DF012817A2
:1009F000390751F5F093DF01E093DE0167C0ED01A7
:100A000020E030E0CE17DF0740F44A815B819E0191
:100A100041155105F1F0EA01F5CFD383C28340813E
:100A20005181840F951FC817D90759F4888199817E
:100A3000840F951F0296918380838A819B81938383
:100A400082832115310529F4F093E101E093E0015F
:100A50003DC0E901FB83EA8349915991C40FD51F39
:100A6000EC17FD0761F480819181840F951F029638
:100A7000E90199838883828193819B838A83E0E063
:100A8000F0E012968D919C911397009719F0FD015B
:100A9000DC01F7CF8D919C9111979D012E5F3F4F07
:100AA000820F931F2091DE013091DF012817390753
:100AB00069F4309729F41092E1011092E00102C02C
:100AC00013821282B093DF01A093DE01DF91CF91F8
:100AD00008956F927F928F929F92AF92BF92CF9222
:100AE000DF92EF92FF920F931F93CF93DF930097C4
:100AF00089F4CB01DF91CF911F910F91FF90EF907F
:100B0000DF90CF90BF90AF909F908F907F906F902D
:100B10000C944804FC01E60FF71F9C012250310998
:100B2000E217F30708F4A9C0EC01D9010D911C915B
:100B3000119706171707B0F00530110508F49BC090
:100B4000C80104978617970708F495C00250110949
:100B5000061B170B019311936D937C93CF010E9499
:100B6000E00489C05B01A01AB10A4C01800E911EFD
:100B7000A091E001B091E101612C712CE12CF12CEC
:100B8000109709F446C08D919C911197A815B9054D
:100B9000B1F56C0142E0C40ED11CCA14DB0478F13B
:100BA0004C018A189B08640142E0C40ED11C1296C5
:100BB000BC9012971396AC91B5E0CB16D10440F0DF
:100BC000B282A38391828082D9016D937C9309C004
:100BD0000E5F1F4F800F911FF90191838083EB2DD2
:100BE000FA2FE114F10431F0D7011396FC93EE9340
:100BF000129741C0F093E101E093E0013CC0681618
:100C0000790608F43C017D0112960D90BC91A02D4F
:100C1000B7CF8091DE019091DF0188169906E1F44B
:100C200066167706C8F48091060190910701009737
:100C300041F48DB79EB740910A0150910B01841B7E
:100C4000950BE817F907C8F4F093DF01E093DE0194
:100C5000F901718360830FC0CB010E9448047C01BD
:100C6000009759F0A801BE010E94B507CE010E946D
:100C7000E004C70104C0CE0102C080E090E0DF9133
:100C8000CF911F910F91FF90EF90DF90CF90BF9089
:100C9000AF909F908F907F906F9008950E94FC0678
:100CA0000E947F00C1EAD1E00E94AA002097E1F3F0
:100CB0000E94A101F9CF1F920F920FB60F9211243B
:100CC0002F933F938F939F93AF93BF938091D601C0
:100CD0009091D701A091D801B091D9013091D5015F
:100CE00023E0230F2D3720F40196A11DB11D05C06F
:100CF00026E8230F0296A11DB11D2093D5018093F4
:100D0000D6019093D701A093D801B093D9018091D7
:100D1000DA019091DB01A091DC01B091DD01019637
:100D2000A11DB11D8093DA019093DB01A093DC013A
:100D3000B093DD01BF91AF919F918F913F912F9122
:100D40000F900FBE0F901F9018952FB7F8946091D9
:100D5000D6017091D7018091D8019091D9012FBF10
:100D600008953FB7F8948091DA019091DB01A0914A
:100D7000DC01B091DD0126B5A89B05C02F3F19F01D
:100D80000196A11DB11D3FBFBA2FA92F982F88270B
:100D9000820F911DA11DB11DBC01CD0142E0660F66
:100DA000771F881F991F4A95D1F70895CF92DF9238
:100DB000EF92FF92CF93DF936B017C010E94B1060B
:100DC000EB01C114D104E104F10479F00E94B106F1
:100DD0006C1B7D0B683E7340A0F381E0C81AD108FC
:100DE000E108F108C851DC4FECCFDF91CF91FF90C3
:100DF000EF90DF90CF900895789484B5826084BDA1
:100E000084B5816084BD85B5826085BD85B581600E
:100E100085BDEEE6F0E0808181608083E1E8F0E06E
:100E20001082808182608083808181608083E0E89D
:100E3000F0E0808181608083E1EBF0E0808184607C
:100E40008083E0EBF0E0808181608083EAE7F0E07E
:100E500080818460808380818260808380818160E2
:100E600080838081806880831092C1000895CF9331
:100E7000DF9390E0FC01E859FF4F2491FC01E45816
:100E8000FF4F8491882361F190E0880F991FFC0146
:100E9000E656FF4FC591D491FC01E057FF4FA59155
:100EA000B491611109C09FB7F8948881209582237D
:100EB0008883EC912E230BC0623061F49FB7F894C5
:100EC0008881322F309583238883EC912E2B2C93AD
:100ED0009FBF06C08FB7F894E8812E2B28838FBF61
:100EE000DF91CF910895A1E21A2EAA1BBB1BFD0131
:100EF0000DC0AA1FBB1FEE1FFF1FA217B307E407F9
:100F0000F50720F0A21BB30BE40BF50B661F771F50
:100F1000881F991F1A9469F7609570958095909530
:100F20009B01AC01BD01CF0108950E94A607A59FBA
:100F3000900DB49F900DA49F800D911D11240895D4
:100F4000EE0FFF1F0590F491E02D0994A29FB001D0
:100F5000B39FC001A39F700D811D1124911DB29FED
:100F6000700D811D1124911D0895FB01DC0102C04B
:100F700001900D9241505040D8F70895FB01DC01DB
:100F800001900D920020E1F7089510E0C4E5D0E053
:100F900004C0FE010E94A0072196C535D107C9F7FC
:040FA000F894FFCFF3
:100FA40009000A000B000000E20180004455504192
:100FB40000000000002401A402CD00F900DD0019A6
:020FC40001002A
:00000001FF
